:100000000C942A000C9447000C9447000C94470071
:100010000C9447000C9447000C9447000C94470044
:100020000C9447000C9447000C9447000C94470034
:100030000C9447000C9447000C9447000C94470024
:100040000C9447000C9447000C9447000C94470014
:100050000C94470011241FBECFE5D8E0DEBFCDBF12
:1000600010E0A0E6B0E0E0EEF1E002C005900D92F5
:10007000A036B107D9F710E0A0E6B0E001C01D92AC
:10008000A036B107E1F70E9462000C94EE000C94D8
:10009000000085E089B910BC8AB188618AB980B551
:1000A000866880BD80B58F7B80BD80B5877F80BD31
:1000B00008958BB18CB108955F9B03C08CB15F999B
:1000C000FDCF08958FB582688FBD8EB589618EBDD5
:1000D0008FE19EE497BD86BD81B3806381BB8FEFC6
:1000E00087BB80E293E09BBD8ABD0E944900C9E0C6
:1000F000D5E01AE006E0FF246894F2F8DD24D394FA
:10010000CC246894C1F8BB246894B3F85F9BFECFFD
:100110000E945900E82E0E945C002AE0E216F1F1EC
:100120002E15B8F083E0E81689F18E1540F021E035
:10013000E21641F182E0E81609F04EC025C025E044
:10014000E21641F1E21620F188E0E81609F044C019
:1001500023C028E1E21631F12E1550F08CE0E816AC
:10016000F9F0E816C8F18E2D80518230A8F51AC03A
:1001700020E2E21688F181E28E1508F528E2E21607
:1001800059F51DC0C8BAC2CFB8BAC0CF18BBBECFD0
:10019000F8BABCCF08BBBACFD8BAB8CFC8BBB6CFB5
:1001A000D8BBB4CF8AB59BB52BE08535920708F054
:1001B000ADCF8AB59BB5C2969BBD8ABDA7CF8AB588
:1001C0009BB523E08032920708F4A0CF8AB59BB597
:1001D000C2979BBD8ABD9ACF18BA98CFF894FFCF2B
:00000001FF
